:020000040800F2
:1000000000040020C1010008D17B0008D17B00085A
:10001000B1390008D17B0008D17B0008D17B0008F2
:10002000D17B0008D17B0008D17B0008719E0008BD
:10003000D17B0008D17B0008D17B00089114010816
:10004000D17B000881DA000811DC000861DC0008BF
:10005000D17B0008D17B0008C1D7000811D8000867
:1000600061D80008B1D8000801D9000801CD000806
:1000700051CD0008A1CD0008F1CD000841CE000807
:1000800091CE0008E1CE000831D6000801DE00085C
:1000900071DE000821DF0008D1DF000851D9000817
:1000A000D17B0008D17B0008610D0108D17B0008DD
:1000B0005110010891100108D1100108F1F0000859
:1000C00031F20008D17B0008D17B0008D17B000809
:1000D000D17B0008D17B0008D17B000851150108B5
:1000E000E1D90008D1DA000821DB0008A10D0108E0
:1000F000D17B0008D17B0008D17B000831CF0008FC
:10010000D17B000861E1000811110108D17B0008D2
:10011000D17B0008D17B0008210D0108D17B0008AC
:1001200081CF0008D1CF000821D0000871D000088D
:10013000C1D00008D17B000871DB0008D17B00082A
:10014000D17B0008D17B0008D17B00081105010894
:1001500011D1000861D10008B1D10008D17B00089D
:10016000D17B0008D17B0008D17B0008D17B00083F
:10017000C1DB0008D17B0008C1290008D17B000841
:10018000D17B0008D17B0008D17B0008D17B00081F
:10019000D17B0008D17B0008D17B0008D17B00080F
:1001A000D17B0008D17B0008D17B0008D17B0008FF
:1001B000D17B0008D17B0008D17B0008D17B0008EF
:1001C00072B62E4880F3098840F20000CCF200009D
:1001D0004EF63471CEF20001086040F20000C0F229
:1001E000F0004EF68851CEF2000108604FF000009A
:1001F000E1EE100A4EF63C71CEF2000108600620D6
:1002000080F31488BFF36F8F11F0EAFA4FF0553086
:100210001B491C4A91423CBF41F8040BFAE71A49BA
:10022000164A91423CBF41F8040BFAE71749184AB5
:10023000184B9A423EBF51F8040B42F8040BF8E702
:1002400000201549154A91423CBF41F8040BFAE7DA
:1002500007F0A6FC124C134DAC4203DA54F8041B11
:100260008847F9E701F08CFF0F4C104DAC4203DAE0
:1002700054F8041B8847F9E707F0A2BC00080020E7
:10028000000000200004002000040020E8B801085D
:1002900000080020541800205818002080A40020D6
:1002A000C0010008C0010008C0010008C00100082A
:1002B0002DE9F04F2DED108AC1F80CD0D0F80CD0FC
:1002C000BDEC108ABDE8F08F07F0C2FD08F018FE03
:1002D000002383F311882846A047002008F048FB3C
:1002E00008F0F6FD07F094FD08F0B2F907F0B0FD54
:1002F00008F006FE00DFFEE700000000000000003E
:100300002DE9F843544B80461A68544882422DED3B
:10031000028B1BD052490B68DA0405D40A6842F4F8
:1003200080530B60012000E000204E4A4E491160CE
:1003300013684A4A934208D147490B6030B1484894
:10034000036823F48052026000E0FEE798ED018A22
:10035000B5EE408A0021F1EE10FAC8F81C10C8F87A
:100360001810C8F81410C8F81010C8F82810C8F8E9
:100370002410C8F8201029D0DFED3C7A28EE270A97
:1003800010EE100A01F038F8044618EE100A0D4677
:1003900001F032F80646B8F800000F4601F01AF8EE
:1003A0002BA3D3E9002301F0ADF902460B463046FA
:1003B000394600F0C3FE02460B462046294601F0AE
:1003C000A1F901F03DFBA8F82C0001E0A8F82C10E1
:1003D00098ED028AB5EE408AF1EE10FA26D0B8F810
:1003E00000904FEA092000F0F5FF044618EE100ACD
:1003F0000D4601F001F816A3D3E9002301F058F8E7
:10040000064648460F4600F0E5FF02460B463046DA
:10041000394600F093FE02460B462046294601F07D
:1004200071F901F00DFBA8F82E0002E00020A8F8F9
:100430002E00B8F800204FF47A73B2FBF3F1A8F85D
:100440003010BDEC028BBDE8F88300BFAFF3008035
:100450001F85EB51B81E194058180020CDB5E8B5DE
:100460003038024000300240C2A507F4000080434B
:100470002DE9F04F9BB083461992A94A1891A948DB
:100480001168814200D0FEE79E6AB3F80CC09F69F4
:100490009A8DD98D039603261C6A5D6A059706928C
:1004A00006FB0CF74FEA8C0206264FEA4C000B9134
:1004B0000E97052106FB0CF70F9207220294049574
:1004C0000D90119701FB0CF04FEACC0602FB0CF1EA
:1004D00000271D695C69D3F81CA010901291179633
:1004E0000197188EDDF80490814580F20A818E48CC
:1004F0009BF800601BF80C7010F80690C25DA144D8
:100500008419511994F8008194F8002201EB4808ED
:10051000CDF81C80DDF834801BF80860855DC719B4
:10052000A9180E9A97F800411BF8022097F800725C
:1005300001EB4405815C0895CC1981190F9E91F857
:10054000008191F8007204EB48081BF80640CDF8D2
:1005500024808218055D92F8006192F80022E91962
:1005600001EB460505EB0807DDF8408015971BF801
:1005700008700A950419C15D94F8005194F800427E
:10058000DDF81C808E1806EB4501119D089A1BF8BA
:1005900005508E18C719425D1696161997F8002156
:1005A00006EB42029044CDF85080129C97F80072FE
:1005B0001BF804604519845DE41995F8007195F8FD
:1005C0000052801904EB47044FF01C0804EB0907A4
:1005D00090F80061139708FB09AADDF81C800C94C1
:1005E0000AEB0209152705EB460490F8005207FBB9
:1005F0000890099FDDF820900A2606FB070A0F27BE
:1006000007FB09A04FF00308DDF8289008FB010064
:100610004FF0060A0AFB0900009015984FF03009C8
:1006200009FB00FADDF858902E2000FB09A0824655
:100630000598824413984FF0240909FB00AA1498E6
:100640004FF02A0909FB00AA0898DDF8249008FB5E
:1006500000F8062000FB0988DDF81C9008EB090073
:1006600007FB01010A9F0C98DDF8009006FB0718B4
:100670001C2606FB008115270B9807FB021205922A
:10068000A9F5003868B1029E049FCDF8108006EBF2
:100690000801CE1B46434FF4807296FBF2F00290A5
:1006A0008046069961B1039E08FB01F8C1F5807789
:1006B00006FB07894FF4807299FBF2F003908046A5
:1006C000199901FB08F7002F02DD0837381103E004
:1006D000083F102697FBF6F047F6BC72019E1349BF
:1006E000189FDDF85C809042A8BF1046DA897243FB
:1006F0008842A8BF0146013627F81210C34401966C
:10070000EFE61D615C61029D059C1D629C61039D7D
:10071000049CC3F81CA05C629D621BB0BDE8F08F16
:1007200058180020CDB5E8B5000800204480FFFF30
:100730002DE9F04FA1B0C74C1F92C74A1E91116816
:10074000A14200D0FEE79F6A9A69998DDC8D0497DB
:100750009F89069207910F940322052106241D6AA2
:100760005E6A03957A4379437C43129214911594FF
:10077000072209210A24794305964FEA47084FEAE0
:1007800087097A434FEAC70A7C431E695D69D3F83B
:100790001CB01891CDF84480CDF84C901692CDF84D
:1007A0005CA01D94002102911A8E0299914280F260
:1007B0005981AA4A047812F80490A944C55D111918
:1007C00012F8058091F8004191F800A2464406EB2A
:1007D0004406119C0896045D5519165D95F800C1F4
:1007E00095F8005206EB0A0808EB4C0ADDF8488041
:1007F000CDF824A010F80810DDF84C80565C1419D0
:1008000006EB050A10F8085094F800C1565D94F8FC
:10081000004251180AEB4C0C361991F800A1149CB7
:1008200091F80012CDF828C006EB4A08065DCDF815
:100830002C80945DDDF85480551904EB010A95F87D
:10084000004195F800520AEB44010C9110F8081091
:100850009619545C641996F8005104EB45040D9404
:10086000169D96F80062DDF824A0DDF85C80A444B3
:10087000445DCDF86CC0155D5118AD1991F800615B
:1008800091F8001205EB460505EB0A060E9510F8E7
:1008900008501C961419565DDDF860A0711894F884
:1008A000006194F8004201EB460C08990CEB01063C
:1008B0001A9610F80A605519915D9219091995F860
:1008C000004192F8006195F8005201EB44012D249B
:1008D00001EB090804FB09BB10910899CDF864806D
:1008E0000BEB0C09DDF8288005EB460592F8006259
:1008F000242202FB019A152404FB08A9DDF824A098
:100900000C994FF01C0B0BFB0A994FF00A08DDF80D
:100910002CA008FB01994FF00F0B0E990BFB0A99C5
:100920004FF00308DDF834A008FB01994FF0060BE7
:100930000BFB0A99CDF80490DDF82CA00C994FF030
:100940004B0B51440BFB01F91B994FF0490A0AFB71
:10095000019B0699DDF868900BEB010A4FF03F0B05
:100960001C990BFB09AA4FF0450BDDF864900BFBBB
:1009700001AA4FF0370B0BFB09ABDDF824A00A9955
:1009800008FB0AF84FF00609DDF820A009FB0188F2
:100990000C99D0444FF00F09DDF82CA009FB018819
:1009A0000A21DDF8389001FB0A884FF01C0A0D99E6
:1009B0000AFB098804FB018A109C0F994FF02D094E
:1009C00009FB04A8DDF804A002FB0C820692AAF53C
:1009D0007A3971B1039C0599CDF8149004EB0902A2
:1009E000541A0F9A4FF48071544394FBF1F403941A
:1009F000A146079961B1049CC1F5807209FB01FC15
:100A000004FB02C94FF4807199FBF1F20492914604
:100A10001F9C04FB09F1002902DD10314C1103E099
:100A20001039202291FBF2F447F6BC718C42A8BF2A
:100A30000C46DA890299DDF874804A4308498C42F1
:100A4000A8BF21461E9C24F81210029A4044511C53
:100A5000A9E600BFCDB5E8B5581800200008002071
:100A60004480FFFF05981E615D61039E069D049C06
:100A700058629D61C3F81CB01E629C62104621B092
:100A8000BDE8F08F2DE9F04F95B0994C1392994A3B
:100A900012911168A14200D0FEE75E6A1D6A9F6A4A
:100AA0009A69998DB3F82E800C964FF00009D3F80F
:100AB00010C05E69D3F81CB00195029709920A91A3
:100AC000CDF83480CDF80C908B4904780D190C5D6D
:100AD00095F8007295F8008106EB070A067ACDF8C2
:100AE0002CA08F198E5D97F8002202EB4805AC44CC
:100AF000057C97F80081CDF810C04A194D5D92F839
:100B0000009292F8002109EB040A0AEB480C90F8D5
:100B100018A090F82090CDF814C001EB0A0494F8C6
:100B2000007294F80041BF1907EB420801EB09027B
:100B3000CDF8188092F8006292F80021771907EB3F
:100B4000440606EB080C90F8288011F80A70079606
:100B500001EB0805CDF840C095F8004295F800512A
:100B6000E619059F06EB4204E619119690F83060ED
:100B700008948C1911F8097094F80022D219049F76
:100B800002EB4502BD180F9590F8385011F8089007
:100B900094F80041DDF82C808E5D4F1997F800A283
:100BA00097F800710AEB090C0CEB4404DDF818A06F
:100BB00011F805C000941C2505FB082944440A21AE
:100BC000DDF8148001FB0A9906EB4706DDF820A04A
:100BD0000F2707FB0899032101FB0A99DDF81CA0E8
:100BE0004FF0060808FB0A99DDF810A0152101FB5B
:100BF0000A99CB44DDF84490CDF82CB04FF02E0A82
:100C00000AFB09FADDF840904FF0300B0BFB09AA04
:100C10004FF0240B0BFB04A90F9C4FF02A0A0AFB90
:100C2000049B099CDDF81890DDF810A0A344059CF6
:100C300008FB09A8DDF820A04FF0030909FB048890
:100C4000079C07FB0A890A2707FB0498DDF8009038
:100C5000DDF82CA00C9F05FB098501FB02520199D0
:100C60000992AAF500328C180D99DDF82880E51B51
:100C70004D434FF4807195FBF1F40194019F44467C
:100C80007C43029FC8EB010507FB054595FBF1F18D
:100C90000291139C6143002902DD0831091103E030
:100CA0000839102791FBF7F147F6BC75134C129FDA
:100CB0000C92A942A8BF2946039DA142B8BF214674
:100CC00079530C354030C02D03957FF4FDAE099863
:100CD000019C029D9861C3F810C05E61C3F81CB00E
:100CE0001C625A629D62102015B0BDE8F08F00BFF3
:100CF000CDB5E8B558180020000800204480FFFF5B
:100D00002DE9F04FA1B084461F92BE4A1E91BE4805
:100D10001168814200D0FEE79E6A9F6905969E8910
:100D2000D98D01967000079703277E431190019893
:100D30009A8D0F9112960521019E08924843B200A8
:100D40001490019E01980199139206277E43072271
:100D5000C700514315961797019E019F1C6A5D6A53
:100D6000169109220A2156434F434FF0000804947C
:100D700006955C691D69D3F81CB018961D97CDF8CF
:100D80000C80188EDDF80C90814580F25A819F49C5
:100D90009CF80000DDF804900F181CF8096097F823
:100DA00000A297F80021085CA2448C198E5D94F88B
:100DB000008294F80041454405EB4207119D0997D4
:100DC0001CF805504A194D5D92F8007292F80081A6
:100DD0003F18129807EB44091CF80040CDF8289002
:100DE00008190C5D90F8007290F80001BF1907EB2C
:100DF0004809DDF84C80CDF82C901CF8089001EBE8
:100E00000902CDF8089092F8006292F80021771953
:100E1000149E1CF80690159E07EB400801EB090094
:100E2000CDF8308090F8005290F800012F1907EBB0
:100E300042081CF80670029DCDF83480CA194E5D38
:100E400092F80042A41904EB40050295DDF82C80CD
:100E5000169E92F80021CF5DA844CDF86C801CF856
:100E6000068011F80950DDF8609001EB080011F8D8
:100E7000088090F8004290F8000166190A9D06EB80
:100E80004204179A0E9466191C961CF802608C197D
:100E90008E5D94F8002294F80041D519099F05EB66
:100EA0004002D5191A951CF809504F194D5D97F855
:100EB000000297F80071404400EB44002D2100EB44
:100EC0000A0401FB0ABB1090099819940BEB020A63
:100ED00006EB470424210B9F01FB00A94FF01508E6
:100EE000DDF828A00D9808FB07964FF01C0B0BFBB4
:100EF0000A69DDF830800A2606FB009A0F27DDF824
:100F0000389007FB08AB4FF0030808FB09BADDF87F
:100F100008B0062000FB0BA9CDF80090DDF834A046
:100F2000DDF830B04FF04B090AEB0B0009FB00FA7B
:100F30001B984FF0490B0BFB00A9079809EB000A1F
:100F4000DDF868901C984FF03F0B0BFB09AA4FF09F
:100F5000450BDDF864900BFB00AA4FF0370B0BFB41
:100F600009ABDDF828A00B9808FB0AF84FF006093A
:100F7000DDF824A009FB00880D9808EB0A0907FB9F
:100F800000980C9FDDF83890029806FB07864FF01A
:100F90001C0A0AFB0968152707FB008610980F9F9B
:100FA0004FF02D0909FB006A01FB02A2DDF800A049
:100FB0000792AAF57A386FB10499069ECDF8188089
:100FC00001EB0800811B79434FF4807291FBF2F72B
:100FD0000497B846089860B1059908FB00F8C0F579
:100FE000807601FB06894FF4807299FBF2F7059732
:100FF000B8461F9800FB08F6002E09DD1036771161
:101000000AE000BF58180020CDB5E8B50008002060
:10101000103E202196FBF1F7039ED8891049DDF898
:10102000748047F6BC729742A8BF17468F42A8BF8C
:10103000394670431E9F721C27F81010C444039257
:101040009FE65C61079C049A9C61059E069C1D615D
:10105000C3F81CB01A625C629E6221B0BDE8F08FDA
:101060004480FFFFAFF3008000000000000000009C
:101070004B1C012B98BF70472DE9F003911C9B0876
:10108000B1F80480B1F802900A8831F802CC8044AB
:10109000814402448444D9F80070D8F8006015688F
:1010A000DCF80040C9F80060C8F80070CCF80050C7
:1010B0001460D9F80470D8F804605568DCF804406E
:1010C000C9F80460C8F80470CCF8045054600831C2
:1010D000013BD5D1BDE8F00370474B1C012B98BFF5
:1010E00070472DE9F003911C9B08B1F80480B1F81A
:1010F00002900A8831F802CC00EB580800EB59093D
:1011000000EB520200EB5C0CD9F80070D8F80060DC
:101110001568DCF80040C9F80060C8F80070CCF829
:10112000005014600831013BDFD1BDE8F003704787
:1011300081F0004102E000BF83F0004330B54FEA88
:1011400041044FEA430594EA050F08BF90EA020FF5
:101150001FBF54EA000C55EA020C7FEA645C7FEA88
:10116000655C00F0E2804FEA5454D4EB5555B8BFAB
:101170006D420CDD2C4480EA020281EA030382EA1C
:10118000000083EA010180EA020281EA0303362DAE
:1011900088BF30BD11F0004F4FEA01314FF4801C81
:1011A0004CEA113102D0404261EB410113F0004F93
:1011B0004FEA03334CEA133302D0524263EB43034A
:1011C00094EA050F00F0A780A4F10104D5F1200EE8
:1011D0000DDB02FA0EFC22FA05F2801841F1000143
:1011E00003FA0EF2801843FA05F359410EE0A5F117
:1011F00020050EF1200E012A03FA0EFC28BF4CF048
:10120000020C43FA05F3C01851EBE37101F00045FD
:1012100007D54FF0000EDCF1000C7EEB00006EEB0A
:101220000101B1F5801F1BD3B1F5001F0CD3490894
:101230005FEA30004FEA3C0C04F101044FEA4452EB
:1012400012F5800F80F09A80BCF1004F08BF5FEA72
:10125000500C50F1000041EB045141EA050130BD52
:101260005FEA4C0C404141EB010111F4801FA4F1F5
:101270000104E9D191F0000F04BF01460020B1FA4A
:1012800081F308BF2033A3F10B03B3F120020CDA82
:101290000C3208DD02F1140CC2F10C0201FA0CF060
:1012A00021FA02F10CE002F11402D8BFC2F1200CC5
:1012B00001FA02F120FA0CFCDCBF41EA0C0190407B
:1012C000E41AA2BF01EB0451294330BD6FEA0404C4
:1012D0001F3C1CDA0C340EDC04F11404C4F12002AF
:1012E00020FA04F001FA02F340EA030021FA04F3C1
:1012F00045EA030130BDC4F10C04C4F1200220FA18
:1013000002F001FA04F340EA0300294630BD21FA55
:1013100004F0294630BD94F0000F83F4801306BF1B
:1013200081F480110134013D4EE77FEA645C18BF0F
:101330007FEA655C29D094EA050F08BF90EA020FA6
:1013400005D054EA000C04BF1946104630BD91EA9E
:10135000030F1EBF0021002030BD5FEA545C05D1A1
:101360004000494128BF41F0004130BD14F58004E0
:101370003CBF01F5801130BD01F0004545F0FE4154
:1013800041F470014FF0000030BD7FEA645C1ABF89
:10139000194610467FEA655C1CBF0B46024650EAC0
:1013A000013406BF52EA033591EA030F41F40021EC
:1013B00030BD00BF90F0000F04BF0021704730B572
:1013C0004FF4806404F132044FF000054FF0000147
:1013D00050E700BF90F0000F04BF0021704730B508
:1013E0004FF4806404F1320410F0004548BF4042DD
:1013F0004FF000013EE700BF42004FEAE2014FEA32
:1014000031014FEA02701FBF12F07F4393F07F4F0C
:1014100081F06051704732F07F4208BF704793F00F
:101420007F4F04BF41F40021704730B54FF4607422
:1014300001F0004521F000411CE700BF50EA010225
:1014400008BF704730B54FF000050AE050EA0102CE
:1014500008BF704730B511F0004502D5404261EB3E
:1014600041014FF4806404F132045FEA915C3FF47F
:10147000D8AE4FF003025FEADC0C18BF03325FEA1C
:10148000DC0C18BF033202EBDC02C2F1200300FACD
:1014900003FC20FA02F001FA03FE40EA0E0021FAF2
:1014A00002F11444BDE600BF00000000000000008F
:1014B00070B54FF0FF0C4CF4E06C1CEA11541DBFEA
:1014C0001CEA135594EA0C0F95EA0C0F00F0DEF8B5
:1014D0002C4481EA030621EA4C5123EA4C5350EA9A
:1014E000013518BF52EA033541F4801143F48013EB
:1014F00038D0A0FB02CE4FF00005E1FB02E506F07C
:101500000042E0FB03E54FF00006E1FB03569CF0D0
:10151000000F18BF4EF0010EA4F1FF04B6F5007FD6
:1015200064F5407404D25FEA4E0E6D4146EB060648
:1015300042EAC62141EA55514FEAC52040EA5E50D1
:101540004FEACE2EB4F1FD0C88BFBCF5E06F1ED87B
:10155000BEF1004F08BF5FEA500E50F1000041EBB2
:10156000045170BD06F0004646EA010140EA02005F
:1015700081EA0301B4EB5C04C2BFD4EB0C0541EA81
:10158000045170BD41F480114FF0000E013C00F396
:10159000AB8014F1360FDEBF002001F0004170BDBA
:1015A000C4F10004203C35DA0C341BDC04F11404D3
:1015B000C4F1200500FA05F320FA04F001FA05F25F
:1015C00040EA020001F0004221F0004110EBD3702C
:1015D00021FA04F642EB06015EEA430E08BF20EA58
:1015E000D37070BDC4F10C04C4F1200500FA04F3FB
:1015F00020FA05F001FA04F240EA020001F000418D
:1016000010EBD37041F100015EEA430E08BF20EAFF
:10161000D37070BDC4F1200500FA05F24EEA020E47
:1016200020FA04F301FA05F243EA020321FA04F076
:1016300001F0004121FA04F220EA020000EBD3702D
:101640005EEA430E08BF20EAD37070BD94F0000F2D
:101650000FD101F00046400041EB010111F4801F61
:1016600008BF013CF7D041EA060195F0000F18BF12
:10167000704703F00046520043EB030313F4801F4E
:1016800008BF013DF7D043EA0603704794EA0C0F08
:101690000CEA135518BF95EA0C0F0CD050EA41061E
:1016A00018BF52EA4306D1D181EA030101F000419B
:1016B0004FF0000070BD50EA410606BF10461946C3
:1016C00052EA430619D094EA0C0F02D150EA0136CF
:1016D00013D195EA0C0F05D152EA03361CBF104610
:1016E00019460AD181EA030101F0004141F0FE41AF
:1016F00041F470014FF0000070BD41F0FE4141F433
:10170000780170BD70B54FF0FF0C4CF4E06C1CEA32
:1017100011541DBF1CEA135594EA0C0F95EA0C0FE7
:1017200000F0A7F8A4EB050481EA030E52EA0335A2
:101730004FEA013100F088804FEA03334FF08055C3
:1017400045EA131343EA12634FEA022245EA1115F0
:1017500045EA10654FEA00260EF000419D4208BFA1
:10176000964244F1FD0404F5407402D25B084FEA4E
:101770003202B61A65EB03055B084FEA32024FF4FA
:1017800080104FF4002CB6EB020E75EB030E22BF57
:10179000B61A754640EA0C005B084FEA3202B6EB17
:1017A000020E75EB030E22BFB61A754640EA5C00C6
:1017B0005B084FEA3202B6EB020E75EB030E22BF56
:1017C000B61A754640EA9C005B084FEA3202B6EB57
:1017D000020E75EB030E22BFB61A754640EADC0016
:1017E00055EA060E18D04FEA051545EA16754FEA78
:1017F00006164FEAC30343EA52734FEAC2025FEA96
:101800001C1CC0D111F4801F0BD141EA00014FF024
:1018100000004FF0004CB6E711F4801F04BF0143F5
:101820000020B4F1FD0C88BFBCF5E06F3FF6AFAE11
:10183000B5EB030C04BFB6EB020C5FEA500C50F1A1
:10184000000041EB045170BD0EF0004E4EEA113124
:1018500014EB5C04C2BFD4EB0C0541EA045170BD2B
:1018600041F480114FF0000E013C90E645EA060E6F
:101870008DE60CEA135594EA0C0F08BF95EA0C0F9D
:101880003FF43BAF94EA0C0F0AD150EA01347FF4E5
:1018900034AF95EA0C0F7FF425AF104619462CE7BC
:1018A00095EA0C0F06D152EA03353FF4FDAE10461F
:1018B000194622E750EA410618BF52EA43067FF470
:1018C000C5AE50EA41047FF40DAF52EA43057FF400
:1018D000EBAE12E700000000000000000000000076
:1018E0004FF0FF3C06E000BF4FF0010C02E000BFEC
:1018F0004FF0010C4DF804CD4FEA410C7FEA6C5CCF
:101900004FEA430C18BF7FEA6C5C1BD001B050EA71
:10191000410C0CBF52EA430C91EA030F02BF90EA5C
:10192000020F0020704710F1000F91EA030F58BF1B
:10193000994208BF90422CBFD8176FEAE37040F07D
:10194000010070474FEA410C7FEA6C5C02D150EA1B
:10195000013C07D14FEA430C7FEA6C5CD6D152EAD6
:10196000033CD3D05DF8040B704700BF844610469B
:1019700062468C461946634600E000BF01B5FFF79A
:10198000B7FF002848BF10F1000F01BD4DF808ED6A
:10199000FFF7F4FF0CBF012000205DF808FB00BF3B
:1019A0004DF808EDFFF7EAFF34BF012000205DF895
:1019B00008FB00BF4DF808EDFFF7E0FF94BF0120E2
:1019C00000205DF808FB00BF4DF808EDFFF7CEFFE3
:1019D00094BF012000205DF808FB00BF4DF808ED22
:1019E000FFF7C4FF34BF012000205DF808FB00BFF3
:1019F0004FEA410212F5001215D211D56FF4787337
:101A0000B3EB625212D94FEAC12343F0004343EAD9
:101A1000505311F0004F23FA02F018BF40427047B4
:101A20004FF00000704750EA013005D111F000403E
:101A300008BF6FF0004070474FF00000704700BFD4
:101A40004A0011D212F5001211D20DD56FF478733D
:101A5000B3EB62520ED44FEAC12343F0004343EA92
:101A6000505323FA02F070474FF00000704750EADD
:101A7000013002D14FF0FF3070474FF00000704747
:101A80004FEA4102B2F1E04324BFB3F5001CDCF1A0
:101A9000FE5C0DD901F0004C4FEAC0024CEA5070D8
:101AA000B2F1004F40EB830008BF20F00100704707
:101AB00011F0804F21D113F13872BCBF01F000400A
:101AC000704741F480114FEA5252C2F11802C2F13C
:101AD000200C10FA0CF320FA02F018BF40F00100BD
:101AE0004FEAC1234FEAD32303FA0CFC40EA0C006F
:101AF00023FA02F34FEA4303CCE77FEA625307D1AC
:101B000050EA01331EBF4FF0FE4040F440007047E2
:101B100001F0004040F0FE4040F40000704700BF7C
:101B200053B94AB9002908BF00281CBF4FF0FF3144
:101B30004FF0FF3000F074B9ADF1080C6DE904CE40
:101B400000F006F8DDF804E0DDE9022304B0704798
:101B50002DE9F047089E04468846002B4BD18A4267
:101B6000154667D9B2FA82F24AB1C2F1200701FAEA
:101B700002F320FA07F7954047EA030894404FEA3A
:101B8000154E230CB8FBFEF71FFA85FC0EFB1788D9
:101B900043EA084307FB0CF1994209D9EB1807F116
:101BA000FF3080F01B81994240F21881023F2B44A4
:101BB0005B1AA4B2B3FBFEF00EFB103344EA0344FD
:101BC00000FB0CFCA44509D92C1900F1FF3380F06F
:101BD0000781A44540F2048102382C4440EA0740C2
:101BE000A4EB0C0400271EB1D4400023C6E9004337
:101BF0003946BDE8F0878B4209D9002E00F0EB8012
:101C00000027C6E9000138463946BDE8F087B3FA37
:101C100083F7002F47D18B4202D3824200F2FA8031
:101C2000841A61EB030301209846002EE0D0C6E938
:101C30000048DDE702B9FFDEB2FA82F2002A40F086
:101C40008F80491B4FEA154E1FFA85F80127B1FB1B
:101C5000FEFC230C0EFB1C1143EA014308FB0CF1B4
:101C6000994207D9EB180CF1FF3002D2994200F2E9
:101C7000CD808446591AA3B2B1FBFEF00EFB1014BE
:101C800043EA044408FB00F8A04507D92C1900F1E9
:101C9000FF3302D2A04500F2B6801846A4EB080438
:101CA00040EA0C409FE7C7F1200CBB4022FA0CFE33
:101CB0004EEA030E01FA07F420FA0CF521FA0CF3B0
:101CC0004FEA1E482543B3FBF8F92C0C08FB1933E7
:101CD0001FFA8EFA44EA034309FB0AF49C4202FA13
:101CE00007F200FA07F10BD91EEB030309F1FF30ED
:101CF00080F087809C4240F28480A9F102097344FD
:101D00001B1BADB2B3FBF8F008FB103345EA0344EC
:101D100000FB0AFAA24508D91EEB040400F1FF33C8
:101D20006BD2A24569D90238744440EA0940A0FB4D
:101D30000289A4EB0A044C45C2464B4654D351D009
:101D4000002E69D0B1EB0A0564EB030404FA0CFC25
:101D5000FD40FC404CEA0505C6E90054002747E772
:101D6000C2F1200320FA03F7954001FA02F021FAAC
:101D700003F34FEA154E3843010CB3FBFEF71FFA8D
:101D800085F80EFB173341EA034107FB08F38B424A
:101D900004FA02F407D9691807F1FF3C2FD28B42ED
:101DA0002DD9023F2944CB1A81B2B3FBFEF00EFBC2
:101DB000103341EA034100FB08F38B4207D969184D
:101DC00000F1FF3C17D28B4215D902382944C91AB9
:101DD00040EA07473BE73746304609E70746E7E66C
:101DE0001846FBE64145ABD2B8EB020A69EB0E029E
:101DF00001381346A4E76046E9E7184695E76746C9
:101E0000D1E781467CE702382C4447E7ACF1020C6D
:101E10002B442FE7384608E73746E9E60000000084
:101E2000704700BF0000000000000000000000003C
:101E3000844641EA000313F003036DD1403A41D3D5
:101E400051F8043B40F8043B51F8043B40F8043B94
:101E500051F8043B40F8043B51F8043B40F8043B84
:101E600051F8043B40F8043B51F8043B40F8043B74
:101E700051F8043B40F8043B51F8043B40F8043B64
:101E800051F8043B40F8043B51F8043B40F8043B54
:101E900051F8043B40F8043B51F8043B40F8043B44
:101EA00051F8043B40F8043B51F8043B40F8043B34
:101EB00051F8043B40F8043B51F8043B40F8043B24
:101EC000403ABDD2303211D351F8043B40F8043BC4
:101ED00051F8043B40F8043B51F8043B40F8043B04
:101EE00051F8043B40F8043B103AEDD20C3205D3D4
:101EF00051F8043B40F8043B043AF9D2043208D0CC
:101F0000D2071CBF11F8013B00F8013B01D30B883D
:101F100003806046704700BF082A13D38B078DD01B
:101F200010F003038AD0C3F10403D21ADB071CBFED
:101F300011F8013B00F8013B80D331F8023B20F857
:101F4000023B7BE7043AD9D3013A11F8013B00F890
:101F5000013BF9D20B7803704B7843708B78837018
:101F60006046704700000000000000000000000014
:101F700090F800F06DE9024520F007016FF0000CC9
:101F800010F0070491F820F040F049804FF0000471
:101F90006FF00700D1E9002391F840F000F108004C
:101FA00082FA4CF2A4FA8CF283FA4CF3A2FA8CF384
:101FB0004BBBD1E9022382FA4CF200F10800A4FAEB
:101FC0008CF283FA4CF3A2FA8CF3E3B9D1E904233F
:101FD00082FA4CF200F10800A4FA8CF283FA4CF376
:101FE000A2FA8CF37BB9D1E9062301F1200182FA30
:101FF0004CF200F10800A4FA8CF283FA4CF3A2FA36
:102000008CF3002BC6D0002A04BF04301A4612BA43
:10201000B2FA82F2FDE8024500EBD2007047D1E946
:10202000002304F00305C4F100004FEAC50514F0D5
:10203000040F91F840F00CFA05F562EA05021CBFA6
:1020400063EA050362464FF00004A9E700000000C0
:1020500001F0FF01102A2BDB10F0070F08D010F859
:10206000013B013A8B422DD010F0070F42B3F6D15D
:10207000F0B441EA012141EA014122F007047FF076
:1020800000070023F0E80256083C85EA010586EACD
:10209000010685FA47F5A3FA87F586FA47F6A5FA09
:1020A00087F68EB9EED1F0BC01F0FF0102F0070215
:1020B00032B110F8013B013A83EA010313B1F8D1C0
:1020C0000020704701387047002D06BF35460338A1
:1020D000073815F0010F07D1013015F4807F02BFDA
:1020E000013015F4C03F0130F0BC0138704700BF2B
:1020F0004FEA410C7FEA6C5C02D150EA013C0AD104
:102100004FEA430C7FEA6C5C02D152EA033C02D1F5
:102110004FF0000070474FF00100704700000000D2
:1021200010B5164C82B022680192082305220A21BC
:10213000032001F03DFB082305220A21022001F0C3
:1021400037FB082305220A21012001F031FB082377
:1021500005220A21002001F02BFB022001F040FBA8
:10216000019A23689A4207D100221146012002B049
:10217000BDE8104001F02CBA00F042F8000B00203E
:1021800000B5174B174C1B6883B0019307F0D0FEC6
:1021900005F036FD01F0B4FB1349144809F0D8FBF3
:1021A00001F0F6FF01F06CFF01F0B2FE05F0B8FCA3
:1021B0000F4800F06DFE00F043FA00F0A9FD01F0B9
:1021C000E7F903E04FF47A7006F05AFB00F080F96B
:1021D0000028F7D02378002BF4D1FFF7A1FFF1E717
:1021E000000B00205C180020040B0020D4A300206A
:1021F0006123000800000000000000000000000053
:1022000000B5084B83B01A680192019A1B689A4284
:1022100005D1054803B05DF804EB05F059BDFFF7A3
:10222000EFFF00BF000B002060620108000000000B
:1022300000B5074B07491A68087883B00192019AE4
:102240001B689A4202D103B05DF804FBFFF7D8FF88
:10225000000B00205C1800200000000000000000BF
:1022600070B52DED028B334C9FED337A236882B02D
:10227000143001934FF0FF320523F0EC017AF4EEB5
:10228000C77AF1EE10FAC8BF1AB203F10103C8BF52
:10229000B0EE677AA12BF0D107EE902AB8EEE78A6C
:1022A000DFED267AB4EEE78AF1EE10FA06DBDFED19
:1022B000247AB4EEE78AF1EE10FA18D9F1EE067A34
:1022C000B4EEE78AF1EE10FA09DBF1EE0A7AB4EE29
:1022D000E78AF1EE10FA02D81A4B01221A70019A1D
:1022E00023689A4224D102B0BDEC028B70BD164B1C
:1022F00001221A70202383F31188144D06F0E8FDA3
:1023000005F086FDAE6A05F0A3FD06F0F9FD2B6829
:10231000AB4207D0AA699B6892689A4202D20C48E5
:1023200005F0D6FC002383F311880A4B1E60C5E735
:10233000FFF766FF000B002000401C4633330F43BD
:1023400052B815436448002065480020A09500203D
:1023500080620108684800200000000000000000C2
:10236000F0B53B4E3B4D336883B001932B88002979
:1023700065D0B0F90220384C07EE902A5A1C04EBC5
:10238000830792B202339BB2F8EEE77A04EB820243
:102390004FF0000EB3F5006FC7ED007A2B80C2F846
:1023A00000E02BD20139C1F38D0100EBC101002700
:1023B0001AE0B0F90A2007EE902A5A1C92B203F1F3
:1023C000020C04EB8307F8EEE77A04EB82021FFAB3
:1023D0008CF3B3F5006FC7ED007A00F108004FF001
:1023E0000107C2F800E008D28842E2D16FBB019A2F
:1023F00033689A4227D103B0F0BD2B8016494FF4C1
:10240000806000F07DF84FF48062144912480FF0AC
:102410005FFE134A1378082B0FD80133DBB2019803
:102420003168137088424FF000032B800BD10B48AA
:1024300003B0BDE8F040FFF713BF0123EFE7B3F5AA
:10244000006FD4D3DAE7FFF7DBFE2B80CFE700BFC6
:10245000000B002062480020601800206038002037
:1024600060480020000000000000000000000000A4
:1024700000B5074B07491A68087883B00192019AA2
:102480001B689A4202D103B05DF804FBFFF7B8FE67
:10249000000B002065480020000000000000000044
:1024A00000B5074B07491A68087083B00192019A7A
:1024B0001B689A4202D103B05DF804FBFFF7A0FE4F
:1024C000000B002065480020000000000000000014
:1024D00000B5074B07491A68087883B00192019A42
:1024E0001B689A4202D103B05DF804FBFFF788FE37
:1024F000000B0020644800200000000000000000E5
:1025000000B50D4B83B01A680192B0F5806F019A47
:102510001B6804D09A420CD103B05DF804FB9A42C8
:1025200007D106480123002203B05DF804EB0FF049
:102530004FBDFFF765FE00BF000B00209062010851
:102540002DE9F04F374E384AB369384F9A61B26976
:102550003B6892F8214083B014F00404019357D1F2
:10256000DFF8CCA0DFF8CC90DFF8CC80012512E0BA
:10257000002D3FD12846FFF793FF2C4605F0F8FACF
:10258000FFF7A6FF68BB642006F07AF9B36993F8F9
:1025900021305B073CD4FFF74BFEC8BBFFF768FF59
:1025A0000028E5D105F0E4FAB0F5FA7FE8D2002C76
:1025B000E6D04FF47A7B0BFB00F4AAFB0434E40969
:1025C000204601F075FC204601F08AFC584601F0D7
:1025D0003FFC584601F054FC0024FFF779FF002827
:1025E000D1D040F2EE2001F033FC404601F048FC2F
:1025F0000025C8E74FF4FA7001F02AFC484601F0C4
:102600003FFC05F0B5FAB0F5FA7FD2D32C46B7E718
:10261000019A3B689A4202D103B0BDE8F08FFFF700
:10262000EFFD00BFA0950020A0620108000B002074
:10263000FDC00FFC0CFEFFFF12FDFFFF00000000BD
:1026400010B50A4C0A4B22680A4884B04FF45E71F8
:10265000039200220092402206F0BAF8039A2368FF
:102660009A4201D104B010BDFFF7CAFD000B002053
:102670004125000870480020000000000000000014
:1026800030B54368174D1A68296883B00446019134
:1026900012B304220270DA681B6852081146984788
:1026A0002378042B18D0202383F3118806F040FCF4
:1026B00005F0EEFB04F10800002106F0D1F905F069
:1026C00007FC06F04DFC002383F31188019A2B6868
:1026D0009A4204D103B030BD02232370E3E7FFF731
:1026E0008FFD00BF000B0020000000000000000074
:1026F00070B5194D82B02B68019311F00C0F0C4688
:10270000064622D114F0200109D0019A2B689A4282
:102710001FD1304602B0BDE87040FFF7B1BFE306FD
:102720000DD57268136853B1019C2868844210D19A
:10273000D2683046520802B0BDE870401847019A8E
:102740002B689A4205D102B070BD044805F0C0FA6A
:10275000D8E7FFF755FD00BF000B0020D06201084D
:1027600070B5194D82B02B68019311F00C0F0C4617
:10277000064622D114F0200109D0019A2B689A4212
:102780001FD1304602B0BDE87040FFF779BFE306C5
:102790000DD57268136853B1019C2868844210D12A
:1027A000D2683046520802B0BDE870401847019A1E
:1027B0002B689A4205D102B070BD044805F088FA32
:1027C000D8E7FFF71DFD00BF000B0020D062010815
:1027D00030B50F4D0F4C2A680F4B83B02046019245
:1027E0004FF6FF721A8000F05BF90C4B01992A68D2
:1027F0000B480C4D2562636203F1240591420A4B9C
:102800002363C4E90A5001D103B030BDFFF7F8FCDF
:10281000000B0020004C0020E84B002088840108B9
:102820001E010100003C00404600010000000000C5
:1028300070B52C4D03782A6882B0012B04460192B2
:1028400024D06368E26A5989236B22F4F04223F4AE
:10285000F043090544BF42F4205243F42053C4E935
:102860000B23236A00221A606268236A52891A6065
:10287000236A03225A60226A136843F040031360FC
:10288000019A2B689A422BD102B070BD164EB0420D
:102890000AD0D4E9083212680C339360A26A236A22
:1028A00012680C339360CCE70346104A406A0A2151
:1028B0000AF0DEFC80B9B06A0B4B0D4A0A210AF01F
:1028C000D7FC28B90B4A136C43F400431364E0E7C8
:1028D000094805F0FDF9F5E7074805F0F9F9EAE7D9
:1028E000FFF78EFC000B0020004C00206127000841
:1028F000F126000800380240B06201080000000024
:1029000070B5456A174C2D68266882B00196EB6059
:10291000436A1B685960456AC36A2D6843F4806343
:102920002B60836A1B68DA60836A1B685960826A5D
:10293000036B126843F480631360436A1A68136878
:1029400043F001031360836A1A68136843F00103BC
:102950001360019A23689A4201D102B070BDFFF75B
:102960004FFC00BF000B0020000000000000000032
:1029700030B5104D81682B680F4A83B001930B6806
:1029800023F001030B608168946A03E0936A1B1BC8
:10299000C72B09D8086810F00100F7D1019A2B68FD
:1029A0009A4204D103B030BD4FF0FF30F6E7FFF795
:1029B00027FC00BF000B0020A095002000000000B5
:1029C000F0B5284D83B02B68019306F049FA05F065
:1029D0009FFA254B1E69F20715D55A69234C42F020
:1029E00001025A612778BB1F012B2AD9052263688F
:1029F00022701B680BB120469847042F27D0022F66
:102A000025D003232370B30710D5174A174C5369F9
:102A100043F0020353612378032B1DD063689B6846
:102A20000622227013B101211048984705F098FA48
:102A3000019A2B689A4213D103B0BDE8F04007F029
:102A400037BA019A2B689A420AD103B0F0BD02232B
:102A50002370B307EAD5D8E72046FFF789FFDDE703
:102A6000FFF7CEFB000B002000000550EC4B0020D0
:102A700000B5074B83B01A680192019A1B689A420D
:102A800004D103B05DF804EBFFF7A2BEFFF7B8FB7B
:102A9000000B00200000000000000000000000000B
:102AA00000B50A4B83B01A680192012202700199A5
:102AB0001A6800239142C0E9013305D10C3003B0FC
:102AC0005DF804EB06F03CBBFFF79AFB000B00201F
:102AD00070B51E4D82B02B6801930E46044670B34C
:102AE00069B3202383F3118806F0F2F905F090F919
:102AF0002378013B012B02D9154805F0E9F820465F
:102B00006660FFF795FE0223237005F0A1F906F039
:102B1000F7F9104B1A689A4204D0996993688A6849
:102B20009A4208D3002383F31188019A2B689A42B2
:102B300009D102B070BD084805F0CAF8F2E70448B0
:102B400005F0C6F8CDE7FFF75BFB00BF000B0020E8
:102B5000F0620108A0950020E0620108000000007A
:102B60002DE9F041214D82B02C6801940E4690462B
:102B70001F46044600B171BB1D4805F0A9F820238B
:102B800083F3118806F0A4F905F042F92378022BAB
:102B900002D0174805F09CF803203B4642463146D8
:102BA00020702046FFF7ACFE05F052F906F0A8F9B8
:102BB000104B1A689A4204D0996993688A689A42BD
:102BC0000ED3002383F31188019A2B689A420BD10C
:102BD00002B0BDE8F081002BCED0002ACFD1CBE7E8
:102BE000054805F075F8ECE7FFF70AFB000B00203D
:102BF00000630108A0950020E062010800000000C9
:102C000000B5084B83B01A680192019A1B689A427A
:102C100005D1054803B05DF804EB05F059B8FFF79E
:102C2000EFFA00BF000B0020206301080000000045
:102C300070B51849184C0A78236882B001934FF494
:102C4000B47303FB00F562B1019A23689A421FD165
:102C500012481349B1FBF5F102B0BDE8704007F02E
:102C6000AFBC1048104A01260E70802141830F49E5
:102C70000F4807F06DFB019A23689A4208D1074874
:102C80000749B1FBF5F102B0BDE8704007F000BDA7
:102C9000FFF7B6FA584C0020000B002054A3002088
:102CA00000BD0105000C024030630108484C0020C3
:102CB000F09F002000000000000000000000000065
:102CC00010B50C4C0C4B22680C4882B0019280224B
:102CD0001A8307F03DFD0A4807F07AFB019A236842
:102CE000084900209A42087001D102B010BDFFF7D8
:102CF00087FA00BF000B0020000C024054A3002004
:102D0000F09F0020584C0020000000000000000050
:102D100070B5154D154A164B2968164E9E6082B047
:102D200000244FF400601080019194701146124805
:102D30005C6001221A60DC6007F08AFA0F4B104ECB
:102D400010485C60202219469A60DC601E6007F023
:102D5000EFFB019A2B689A4204D102B0BDE87040A3
:102D6000FFF7AEBFFFF74CFA000B0020444C0020E9
:102D7000484C0020012C0008F09F0020344C00201B
:102D800000BD010554A30020000000000000000069
:102D90002DE9F04F394A3A4B126883B00124019271
:102DA0001C70002963D04FF00008364CC246C34661
:102DB000C1464746C446434647F6FF7E1DE0AB4545
:102DC000A8BFAB46024432F9026CB2F90450B442D7
:102DD000B8BF3446B645A8BFB6464D4545DCA84504
:102DE000A8BFA846B2F90220BA420EDC04339245CD
:102DF0009BB2A8BF924699420CD95D1C6A0030F97B
:102E000015506545DBDDAC46DCE704339BB29942E7
:102E10001746F2D8A4EB0E04ACEB0B0CA7EB0A0799
:102E2000A9EB0808A4B21FFA8CFCBFB21FFA88F8FD
:102E3000154A12491480019C0968144BA2F802C07B
:102E40009780B0F8F8C4B0F8FA64A2F80680B0F839
:102E5000FC54B0F8FE24A3F800C08C425E809D8034
:102E6000DA8008D103B0BDE8F08FA946BAE78846FA
:102E70000F468C46DCE7FFF7C3F900BF000B0020CC
:102E8000594C00200080FFFF644C00205C4C002067
:102E900070B53F4B3F4C1A78236882B0012A0193EA
:102EA00005D0019A23689A4270D102B070BD3A49A8
:102EB0003A4B4D6C45F480354D644E6A002546F41E
:102EC00080364E624D621D61DD60196A21F001019C
:102ED0001962996921F003019961996941F0010131
:102EE0009961996921F0F0019961196A21F00A014B
:102EF0001962996921F00C019961996821F07001BA
:102F00009960996841F050019960996821F4803185
:102F100021F007019960996841F0070199601968EB
:102F200021F440711960DA629D625A61196A21F0D8
:102F300010011962996921F440719961996921F030
:102F4000807121F4E0419961996941F4C04199612E
:102F5000196A21F0A00119629A639A6942F4006229
:102F60009A611A6A22F480621A621A6A42F01102A5
:102F70001A621A6842F001021A6020B10090684695
:102F800000F076F98DE7064B0093F8E7FFF738F984
:102F9000DCA20020000B002000380240004001406D
:102FA000912D00080000000000000000000000005B
:102FB00070B5114C82B0236801930E46154620234C
:102FC00083F3118805F0B4FF04F062FF0B4B0C484B
:102FD000C3E9006506F074F804F07AFF05F0C0FF5D
:102FE000002383F31188019A23689A4201D102B029
:102FF00070BDFFF705F900BF000B002080610020C5
:103000006C4C0020000000000000000000000000E8
:1030100070B5114C82B0236801930E4615462023EB
:1030200083F3118805F084FF04F032FF0B4B0C484A
:10303000C3E9006506F044F804F04AFF05F090FF8C
:10304000002383F31188019A23689A4201D102B0C8
:1030500070BDFFF7D5F800BF000B0020645F0020B3
:103060006C4C002000000000000000000000000088
:103070002DE9F04F624B63499A69634B916185B0CA
:103080001B6803935E4B9B6993F821305B0700F14B
:10309000AD805E4805F0DCFF5C4805F0D9FF584B79
:1030A0009B6993F8212012F0040240F09F80584D54
:1030B00058482B6801680446406805EB830304EB1D
:1030C000810103F50279430001F10808019343D01F
:1030D000DFF850B1504BDFF85CA1012018F8125016
:1030E00018F8006019F8121019F8004005F0550C96
:1030F000770806F0550613F80CC09E5D01F0550EDA
:103100004CEA061649084FEA540C01F0550104F048
:1031100055040CF0550C6D0813F80EE0595C1C5D5D
:1031200013F80CC00BF8126005F0550507F05507B1
:1031300041EA0C114EEA041E0AF812E05D5D0AF83D
:103140000010DF5D0199013245EA071591420BF845
:10315000005000F10200C1D1304B31493148324DAD
:103160000422FDF785F9314B314932480422FDF73D
:103170007FF9314B314932480422FDF779F9314B5F
:10318000314932480422FDF773F9DFF8D4C02868CA
:103190009CF80070224A264900EBC71302F1400652
:1031A00014881C8054885C804C889C80043231F8E0
:1031B000044BDC80964203F10803F1D1092F11D1B1
:1031C000234B00221B688CF800204FF42071984795
:1031D0002B68204A204993420B6006BF1F4B2B608F
:1031E0002A604FE701378CF800704BE7064B039AD3
:1031F0001B689A4202D105B0BDE8F08FFFF700F8D6
:10320000A095002000660108000B00206C4C0020F7
:1032100080610020645F0020100B00203C5D0020D6
:10322000F851002038520020900B0020A45D0020AF
:103230000C5E00204C5E0020705D0020FA510020E2
:1032400039520020D85D00200E5E00204D5E002027
:103250004C5F002038530020940B00203858002089
:10326000385D0020000000000000000000000000A9
:103270002DE9F04F494A0168494B116085B00021A2
:103280000E461B684748039305F082FE4FF4AF617A
:10329000454B009641224548454DDFF84891454C45
:1032A000DFF844A1444F05F093FA444B444A1860B8
:1032B000136BC5F804A043F480534FF002184FF489
:1032C0007A5B13632846C5E90298A5F800B0FDF7BC
:1032D00017F82046C4E901A9C4F80C80A4F800B08E
:1032E000FDF70EF805F13400C5E90EA9C5F84080D8
:1032F000A5F834B0FDF704F8324DC4F8408004F16D
:103300003400C4E90EA9A4F834B0FCF7F9FF314643
:1033100040F20C4238460FF073FDDFF8D0902A4A95
:103320006E604FF400634FF080082E812A606B813D
:10333000264CC5F80C80C7F80894FFF799FB29467E
:103340002348244DFFF7C4FB07F5027307F1080279
:103350004FF480711E48FFF703FC314620464FF4BE
:1033600003720FF04DFD1C4B1C4AC4F80892083440
:103370001A611946C3E900641948C3E9028507F0D8
:10338000BFFB074B039A1B689A4205D1144805B04E
:10339000BDE8F04F07F0FCBBFEF732FF4C5F0020AA
:1033A000000B00206C4C002071300008804C002085
:1033B0003C5D0020A45D002080610020784C00204E
:1033C0000038024070610020B12F0008645F0020C7
:1033D000004C002011300008505F00202C03080032
:1033E000DCA20020000020410000FA45EFBEADDE67
:1033F00010B50B4C0B48236882B0019305F088FF91
:10340000094806F065F9019A23689A4205D10548F2
:1034100002B0BDE8104005F0B3BFFEF7F1FE00BFFB
:10342000000B0020A40B00209C0B002000000000DB
:1034300030B50F4C83B0236801930D4608B1FFF7F8
:10344000F7FB4FF47A700B4900FB05F000F2E73010
:10345000A1FB0030800905F013FA019A23689A4213
:1034600004D103B0BDE83040FFF72ABCFEF7C8FE28
:10347000000B0020D34D621000000000000000008F
:103480002DE9F0432DED028BDFF8FC80344BD8F8AA
:10349000182034491B68344DDFED348A9FED348A9F
:1034A000344E354F916183B00193202383F311880B
:1034B00005F00EFD04F0ACFC304805F079FA286008
:1034C00004F0C6FC05F01CFDD8F80030434508D0D8
:1034D000D8F818209B6892689A4202D2284804F0D3
:1034E000F7FB4FF0000989F311882B681A8972BB2A
:1034F00030E0D3E9001202EB890393ED007A31F852
:103500001900C8EE877A09F10109FCEEE77A17EE97
:10351000903A9CB22146FFF78BFF07EE904AF8EEF7
:10352000E77A4FF47A7367EE887AFCEEE77A17EE63
:10353000902A90B203FB00F000F2E730A7FB0030C6
:10354000800905F09DF92B681A894A4502DD327819
:10355000002ACED100230B48337006F039F8A4E7D7
:10356000000B0020106601089065002000007A44DE
:103570006666A63F980B0020D34D62108C65002034
:10358000206601089C0B0020A09500200000000090
:1035900010B50A4C0A4B22680A4884B04FF4FC71FB
:1035A000039200220092402205F012F9039A236848
:1035B0009A4201D104B010BDFEF722FE000B00209C
:1035C0008134000898650020000000000000000021
:1035D00030B51E4C85B0236803930F2815D00E28F4
:1035E00015D81B4A00EB400002EB80021948036823
:1035F00099B963B103992368174D012499422C703E
:1036000008BF114617D0FEF7FBFD002AEED1039A42
:1036100023689A42F7D105B030BD02290E4D04BF90
:103620000021297063B10399236801209942287011
:10363000E9D10848114605B0BDE8304005F070BA40
:103640000192FFF7D5FE019AEDE700BF000B0020C5
:10365000306B01088C650020980B002000000000F2
:1036600000B5074B07491A68087083B00192019AA8
:103670001B689A4202D103B05DF804FBFEF7C0FD5F
:10368000000B0020906700200000000000000000F8
:1036900010B50B4C0B48236882B0019305F038FE3F
:1036A000094806F015F8019A23689A4205D10548A1
:1036B00002B0BDE8104005F063BEFEF7A1FD00BFFB
:1036C000000B0020C00B0020B80B00200000000001
:1036D00070B5164E16483368154D82B005224FF46A
:1036E000807101930BF024FC20246B6983F48073B8
:1036F0006B61012005F0C4F8631E13F0FF04F4D1E0
:103700004FF4807140F20622298309480BF010FC27
:10371000019A33689A4206D10649074802B0BDE8CB
:10372000704007F07DB8FEF76BFD00BF000B002076
:10373000000402407078010820A000200000000072
:1037400000B50C4A0C4B1278196883B0012A01911C
:10375000019A1B6804D09A4209D103B05DF804FBBA
:103760009A4204D103B05DF804EBFFF7B1BFFEF756
:1037700047FD00BF20A00020000B0020000000003B
:1037800000B5084B83B01A680192019A1B689A42EF
:1037900005D1054803B05DF804EB07F089B8FEF7E2
:1037A0002FFD00BF000B002020A000200000000023
:1037B00070B5094D094E2C6882B000EB40000194B1
:1037C000315434180198296862708842A37001D17D
:1037D00002B070BDFEF714FD000B002094670020BE
:1037E00000B50D4B83B01A68019201280BD90B4923
:1037F0004A6982F004024A61019A1B689A4209D11F
:1038000003B05DF804FB054A042108B95183F3E7CE
:103810001183F1E7FEF7F4FC000B002000040240E6
:1038200030B5094B094D044607CB83B02B68019393
:10383000206001982B6861609842A26001D103B0BA
:1038400030BDFEF7DDFC00BF94670020000B0020B8
:103850002DE9F043254E83B034680194042A9DF885
:103860002890144605460F46984639D9B9F1000FFD
:1038700014BF00224FF08052640002EB0863013C49
:103880001C4405F00F0527F01F07202383F3118840
:1038900005F01EFB3D4304F0BBFA154B1035DD600F
:1038A0001C6104F0D5FA05F02BFB124B1A689A4202
:1038B00004D0996993688A689A420DD3002383F3F0
:1038C0001188BFF36F8FBFF34F8F019A33689A420D
:1038D0000AD103B0BDE8F083074804F0F9F9EDE739
:1038E000064804F0F5F9C1E7FEF78AFC000B00205A
:1038F00090ED00E0A095002000790108E078010833
:1039000030B5224D224C2B68224A85B00393636860
:1039100043F004036360536A43F48033536220230B
:1039200083F3118805F0D4FA04F072FA17221A4BC7
:10393000E260236104F08CFA05F0E2FA174B1A6892
:103940009A4204D0996993688A689A4218D30020F1
:1039500080F31188BFF36F8FBFF34F8F03231D22B6
:1039600000904FF00051FFF773FF094A536843F08E
:1039700001035360039A2B689A4205D105B030BD0C
:10398000074804F0A5F9E2E7FEF73AFC000B002037
:1039900090ED00E000ED00E009000010A09500208F
:1039A0000079010800000000000000000000000095
:1039B00070B51A4D1A4C1B4E0FCD0FC49EB02A681D
:1039C000336822801D93EFF30981682203A8FEF774
:1039D0002FFA154B9D6AAA0714D4EB0708D5124B92
:1039E00008995B6B114A00910D4880210FF058FA3D
:1039F0001D9A33689A420FD109481EB0BDE8704045
:103A000004F066B9099A5B6B0092A4F11000084AB1
:103A100080210FF045FAE0E7FEF7F2FBC4780108D9
:103A2000A0670020000B002000ED00E0A078010856
:103A30008078010800000000000000000000000085
:103A400000B51F4B0278196883B00191E2B11D4A9D
:103A50004FF4005111834278EAB11A4A4FF4805171
:103A600011838278F2B1174A4FF480411183C278F2
:103A7000FAB9144A4FF400415183019A1B689A42E3
:103A80001CD103B05DF804FB0E4A4FF40051518382
:103A90004278002AE1D10B4A4FF480515183827859
:103AA000002AE0D1074A4FF480415183C278002AAE
:103AB000DFD0044A4FF400411183DEE7FEF7A0FB9C
:103AC000000B002000100240000000000000000079
:103AD00000B51F4B0278196883B00191E2B11D4A0D
:103AE0004FF4007111834278EAB11A4A4FF48071A1
:103AF00011838278F2B1174A4FF400611183C278C2
:103B0000FAB9144A4FF480615183019A1B689A42B2
:103B10001CD103B05DF804FB0E4A4FF400715183D1
:103B20004278002AE1D10B4A4FF4807151838278A8
:103B3000002AE0D1074A4FF400615183C278002A7D
:103B4000DFD0044A4FF480611183DEE7FEF758FBB3
:103B5000000B0020001002400000000000000000E8
:103B600030B50C4A0C4B116883B04FF400550191ED
:103B70004FF480544FF400414FF480405D835C83E8
:103B80005883598301991368994201D103B030BD1C
:103B9000FEF736FB000B0020001002400000000082
:103BA00030B50C4A0C4B116883B04FF4007501918D
:103BB0004FF480744FF480614FF400605D835C8348
:103BC0005883598301991368994201D103B030BDDC
:103BD000FEF716FB000B0020001002400000000062
:103BE00010B50B4C0B48236882B099220021019339
:103BF00007F0DEF8019A23689A4206D105480021B1
:103C000002B0BDE8104007F0BBB9FEF7F9FA00BFFB
:103C1000000B002080A30020000000000000000036
:103C200010B50B4C0B48236882B0992200210193F8
:103C300007F0BEF8019A23689A4206D10548002190
:103C400002B0BDE8104007F09BB9FEF7D9FA00BFFB
:103C5000000B00209CA300200000000000000000DA
:103C600000B5084B83B01A680192019A1B689A420A
:103C700006D10548002103B05DF804EB07F0E8B871
:103C8000FEF7BEFA000B002080A300200000000019
:103C900000B5084B83B01A680192019A1B689A42DA
:103CA00006D10548002103B05DF804EB07F0D0B859
:103CB000FEF7A6FA000B00209CA3002000000000E5
:103CC00070B51A4C1A4E2378326882B0022B0192DA
:103CD000A26811D165781748013505F0070500EB9A
:103CE0008500904763686570013B6360019A3368A3
:103CF0009A4219D102B070BD012B08D001993368E6
:103D0000994211D10C4802B0BDE870401047657867
:103D10000848013D05F0070500EB85009047636802
:103D2000657001336360E1E7FEF76AFA38680020E6
:103D3000000B0020A0790108907901080000000024
:103D400070B51A4C1A4E2378326882B0012B01925A
:103D5000A26811D165781748013505F0070500EB19
:103D6000850090476368657001336360019A33682A
:103D70009A4219D102B070BD022B08D00199336864
:103D8000994211D10C4802B0BDE8704010476578E7
:103D90000848013D05F0070500EB85009047636882
:103DA0006570013B6360E1E7FEF72AFA20680020B6
:103DB000000B0020A07901089079010800000000A4
:103DC00030B51F4D85B02B68039340F24C439942A8
:103DD000044626DCA3F69803994211DB4B00002B26
:103DE00029D10370036998474FF47A71039A2B68BD
:103DF0009A421ED1606905B0BDE8304006F090BF20
:103E0000104B02225B42227040F2892293420E49FB
:103E100091FBF3F189B207DC0191E36898470199BE
:103E2000E4E7012303702D2101912369984701994B
:103E3000DCE7FEF7E5F9E4DD01220270E4E700BF0C
:103E4000000B002068F7FFFFA086010000000000C3
:103E500000B5084B83B01A680192019A1B689A4218
:103E600006D10146044803B05DF804EBFFF7A8BF94
:103E7000FEF7C6F9000B00202068002000000000BB
:103E800000B5084B83B01A680192019A1B689A42E8
:103E900006D10146044803B05DF804EBFFF790BF7C
:103EA000FEF7AEF9000B002038680020000000008B
:103EB00000B5084B08491A6883B040000192019A86
:103EC0001B6848609A4202D103B05DF804FBFEF71C
:103ED00097F900BF000B00202068002000000000C0
:103EE00000B5084B08491A6883B040000192019A56
:103EF0001B6848609A4202D103B05DF804FBFEF7EC
:103F00007FF900BF000B002038680020000000008F
:103F100070B51D4E1D4A1E4B30681E491E4C9160E7
:103F200082B00021D46001901C4C1D481D4D9D6045
:103F3000117051705160106154611B481B4A1C4D37
:103F4000D8601C48197059705960C3E90425FFF7FF
:103F500077FD1848FFF7BCFD1749204606F090FE94
:103F6000204606F0C5FF2846144906F089FE019A4E
:103F700033689A4205D1284602B0BDE8704006F089
:103F8000B7BFFEF73DF900BF000B002038680020E6
:103F900020680020413A0008E13B000880A300208F
:103FA000613C0008D13A0008213C0008913C00081F
:103FB0009CA300209079010850790108107901082C
:103FC0000A490B4B09680B4A82B02020019140211D
:103FD00058834FF4806559834FF400644FF4804058
:103FE00004215D835C8358835183FEE7000B00202E
:103FF000000C02400004024000000000000000002D
:1040000080B5164A164B9269164E17491B68DFF8A1
:104010006480164D164C916182B037460193284654
:10402000FFF7FEFB204608F0DBF83B462A460C2152
:10403000204608F055F9204608F012F93078FFF7CD
:104040000FFB98F80030033B012B4FF0140002D90E
:1040500004F016FCE3E7FFF71BFBE0E7A095002068
:10406000000B002050680020D0790108C87D002096
:10407000FCA20020EC4B002000000000000000002B
:1040800010B50C4C0C4923680C4884B0039308F01D
:104090005FF8002300934122094B0A484FF4AF61B7
:1040A00004F096FB039A23689A4201D104B010BD34
:1040B000FEF7A6F8000B0020C0790108FCA2002042
:1040C00001400008507800200000000000000000BF
:1040D00000B50F4B83B01868019002290CD003295A
:1040E0000CD001290B4818BF0020019A1B689A4286
:1040F0000BD103B05DF804FB0748F6E7032A96BF2F
:104100000648002000EBC200EFE7FEF779F800BF99
:10411000000B0020C07A0108607A0108707B01085A
:1041200070B5154C82B02368019302291CD10D464D
:104130000646202383F3118804F0FAFE03F0A8FE5C
:1041400030460E4A012108F0CBF929460C4A304688
:1041500008F0C6F90B4807F09BFE03F0B9FE04F027
:10416000FFFE002383F31188019A23689A4201D14C
:1041700002B070BDFEF744F8000B0020E0790108A2
:10418000107A0108C48D002000000000000000002B
:1041900030B5134D134C2B68134883B0019307F0CF
:1041A000EFFD1249104807F01BFE226D936B23F4BC
:1041B000002393634FF47A7004F062FB20460C49AD
:1041C00008F03EF9226D936B43F400239363019A48
:1041D0002B689A4201D103B030BDFEF711F800BF41
:1041E000000B002060A00020C48D0020407A010850
:1041F000507A0108000000000000000000000000EC
:1042000000B5084B83B01A680192019A1B689A4264
:1042100005D1054803B05DF804EB05F079B8FDF76A
:10422000EFFF00BF000B0020D40B002000000000B7
:1042300000B5084B83B01A680192019A1B689A4234
:1042400005D1054803B05DF804EB05F099B8FDF71A
:10425000D7FF00BF000B0020D40B0020000000009F
:1042600070B50D4C82B0236801930D1E06460DDD1E
:10427000284605F095FD18B90C2333604FF0FF3048
:10428000019A23689A4205D102B070BD034803F039
:104290001FFDEDE7FDF7B4FF000B0020907B010848
:1042A00000B5064B83B01A680192019A1B689A42C6
:1042B00002D103B05DF804FBFDF7A2FF000B002064
:1042C00000B5074B83B01A680192019A1B689A42A5
:1042D00004D103B05DF804EB03F03AB8FDF790FFAA
:1042E000000B0020000000000000000000000000A3
:1042F00010B50C4C82B02368019315290CD801220B
:10430000094B8A4013403BB101740020019A236895
:104310009A4204D102B010BD6FF00700F6E7FDF736
:104320006FFF00BF000B00200B00300000000000FA
:1043300000B5074B83B01A680192019A1B689A4234
:1043400004D103B05DF804EB02F0CABAFDF758FFE0
:10435000000B002000000000000000000000000032
:1043600010B5074B82B01C680194019C1B689C42ED
:1043700004D102B0BDE8104002F072B9FDF740FF71
:10438000000B002000000000000000000000000002
:1043900010B5074B82B01C680194019C1B689C42BD
:1043A00004D102B0BDE8104002F072BAFDF728FF58
:1043B000000B0020000000000000000000000000D2
:1043C0002DE9F04182B002AB0024364D03F8054DD3
:1043D00090462A6801920F461A460121064603F0CC
:1043E000DFF90446E0B9B8F1010F9DF803301FD0A2
:1043F000042F53D8DFE807F0322D0328230003F001
:10440000FB07BB420CD03A460121304603F068F965
:10441000044628B986F830717169304602F060FAB6
:10442000019A2B689A42204636D102B0BDE8F0814D
:10443000042F33D8DFE807F02B26211C170003F0E8
:104440007F07BB42DFD1EBE703F0BF07BB42DAD106
:10445000E6E703F0D707BB42D5D1E1E703F0EF076A
:10446000BB42D0D1DCE743F08007BB42CBD1D7E7DA
:1044700043F04007BB42C6D1D2E743F00407BB423A
:10448000C1D1CDE743F02807BB42BCD1C8E743F018
:104490001007BB42B7D1C3E7FDF7B2FE6FF00304CC
:1044A000BEE700BF000B002000000000000000007D
:1044B00030B583B002AA114D002302F8053D0C4629
:1044C0002B680193012103F06BF978B99DF8033053
:1044D000C3F30011C3F3C0022170A270C3F38001C3
:1044E000C3F38012DB096170E2702371019A2B68BB
:1044F0009A4201D103B030BDFDF782FE000B0020CF
:1045000070B5134C84B00E46236803930DF1060278
:10451000F821054603F05CF928B1039A23689A4212
:1045200013D104B070BD02AA0421284603F068F933
:104530000028F2D1BDF8062012B93368AB61ECE770
:10454000029BB3FBF2F33360F8E7FDF759FE00BFBF
:10455000000B002000000000000000000000000030
:1045600000B5084B027F18680A7083B00190019A69
:104570001B689A4203D1002003B05DF804FBFDF7ED
:104580003FFE00BF000B0020000000000000000004
:1045900070B5104C82B00E46236801930DF10202F3
:1045A0002021054603F014F938B9BDF8023053B1A3
:1045B000DB00012233602B622A77019A23689A423A
:1045C00005D102B070BD2B6A33602877F5E7FDF79F
:1045D00017FE00BF000B00200000000000000000DC
:1045E000F0B5294F83B03B680193052947D80E46A3
:1045F0000446154662B100EB81020023526B012094
:10460000711E04292FD8DFE801F02522130631009E
:1046100010460123F4E75B00FE226021204603F0F0
:104620008FF870B9344445B9284684F8285008E01A
:1046300084F82B003444002DF6D0012384F8283070
:104640000020019A3B689A421CD103B0F0BD84F867
:104650002A00EFE7C2F34F224421204603F058F826
:104660000028DFD0EDE784F82800E3E71B01EF2204
:104670006021204603F064F80028D3D0E1E76FF012
:104680000300DEE7FDF7BCFD000B0020000000008A
:1046900010B50C4B82B01C68019405290AD801445E
:1046A000002091F828101170019A1B689A4206D1D7
:1046B00002B010BD002111706FF00300F4E7FDF7A8
:1046C0009FFD00BF000B0020000000000000000064
:1046D000F0B543181C4E83B0044693F828003368A5
:1046E00001930D46174630B105292AD8DFE801F0BD
:1046F000141E1A1C0C0C04EB81046263019A3368CB
:104700009A421CD103B0F0BDC2F34F22642120466F
:1047100002F0FEFF08B1F1E7626304EB85040020BC
:104720006763EBE7E263F8E72264F6E7C2F34F2240
:104730004421204602F0ECFF0028EED0DEE7FDF732
:104740005FFD6FF00300D9E7000B002000000000C0
:1047500070B5204C82B023680193054616460529A2
:1047600034D8DFE801F0030E0C1E2020436B3360C9
:104770000020019A23689A4226D102B070BDC36B13
:10478000F5E70DF10202442103F022F80028F0D1F0
:10479000BDF802305A028BB9AB6B336085F8290043
:1047A000E7E7036CE3E70DF10202642103F010F880
:1047B0000028DED1BDF802305B02D8E70123326069
:1047C000AA6385F82930D4E7FDF71AFD6FF00300DE
:1047D000CFE700BF000B0020000000000000000039
:1047E00070B5104C82B00E46236801930DF10302A0
:1047F0000121054602F0D4FF58B99DF8033085F831
:1048000030311B064BBF012303463370307085F8EF
:104810004C30019A23689A4201D102B070BDFDF775
:10482000EFFC00BF000B00200000000000000000B3
:104830002DE9F047DFF898A0027CDAF8003082B06A
:104840000F4601F8082B06460193FFF759FEA0BB5F
:10485000387307F110013046FFF79AFE68BB07F185
:104860001401304600F064FD38BB044607F124050E
:1048700006F1280907F118082A46A1B23046FFF7C9
:1048800067FFD0B9013419F8013B08F8013B062C49
:1048900005F10405F0D107F13C013046FFF7A0FF18
:1048A00058B9019ADAF800309A420ED1391D3046D3
:1048B00002B0BDE8F04702F08BB8019ADAF8003098
:1048C0009A4202D102B0BDE8F087FDF799FC00BF23
:1048D000000B0020000000000000000000000000AD
:1048E0002DE9F041614F92B005463B6811930022DB
:1048F000882102F0F5FE4FF47A724FF4C8735C49D8
:10490000A5F85221A5F854315A4AC5F85811002388
:10491000C5F8D42085F8F0302B62284601A9FFF7AE
:1049200087FF044688B9ADF8040001AE0FCE05F14B
:10493000100CACE80F000FCEACE80F000FCEACE8C7
:104940000F0096E80F008CE80F004B4BC5F8343190
:1049500001264FF420634FF4FA72A5F83C31A5F814
:1049600038218021324685F85061284602F0B8FE91
:1049700032468046FF21284602F0B2FE002248EA75
:10498000000011460443284602F0AAFE64B20DF16D
:10499000030204439121284602F002FF64B29DF80D
:1049A000033085F83A31044332460021284602F0AC
:1049B00097FE64B200220443FF21284602F090FED5
:1049C00064B2044300228021284602F089FE64B2CA
:1049D000204340B278B90146324628463446FFF7B4
:1049E000FFFD40B90122A1B228461444FFF7F8FDAB
:1049F000062CF6D130B1119A3B689A4233D112B0ED
:104A0000BDE8F0816885024604212846FFF7E8FDED
:104A10000028F0D1024605212846FFF7E1FD0028D5
:104A2000E9D14FF490136B634FF480420121284683
:104A3000FFF74EFE0028DED14FF40C13EB6395F820
:104A40002B3003B10023FF222B6485F83021012194
:104A5000284602F045FE012385F832310028CAD1EC
:104A600085F81501C7E7FDF7CBFB00BF000B002061
:104A7000856B0100A470090064008403000000003D
:104A800010B5084B82B01C680194019C1B689C42C5
:104A900005D1012302B0BDE8104000F039BFFDF799
:104AA000AFFB00BF000B0020000000000000000072
:104AB00030B5184C90F8DA30226883B0042B01929C
:104AC0000D460DF1030211D0142102F069FE20B948
:104AD0009DF80330DB0706D42870019A23689A42B8
:104AE00015D103B030BD01232B70F6E7132102F07E
:104AF00057FE9DF8033013F0180F03F0070318BF9B
:104B00006FF00500042BEED000232B70E5E7FDF7D6
:104B100077FB00BF000B0020000000000000000039
:104B20002DE9F047564F8EB03B680D930C460C2391
:104B30000AAA1421054602F0B3FD8646002840F07B
:104B40008B809DF82EE09DF830C09DF82F209DF8B9
:104B500031109DF82A609DF82B30A07502EB0E22D3
:104B600001EB0C2192B289B249025202C4E903213D
:104B700003EB0623C4E900009BB2A3829DF83280B8
:104B80009DF83360B5F852E195F831C19DF82810D1
:104B900006EB0826BEF57A7FB6B21FD006FB0EF6EE
:104BA000DFF8E09095F81C80D5F820E006F5FA765D
:104BB000A9FB0696B609B8F1000F0ED01FFA8EFEBB
:104BC00003FB0EFE4FEA2E2E72454DD0B6B202FB0D
:104BD00006F6A2EB0E0EB6FBFEF6B6B2BCF1000F67
:104BE00047D0B001C0B2B608E0750DF10B002681C8
:104BF000CDE90040284602F043FA864660BB9DF8A6
:104C00000B8084F8188005F150060FCE0DF10C0CC6
:104C1000ACE80F002389ADF8143096E807006389EB
:104C2000ADF81630E36894F817A0B4F81490069322
:104C30002369646804948CE8070003AC8DF8248031
:104C40008DF823A00793ADF820900FCC50350FC5F9
:104C50009CE8070086E807000D9A3B689A42704678
:104C60000CD10EB0BDE8F087BCF1000F03D148F6BF
:104C7000E0260020B8E740F6AE06B5E7FDF7C0FA3B
:104C8000000B0020D34D6210000000000000000067
:104C90002DE9F041134D144C296882B0164601915C
:104CA0000DF102020E211F46804602F091FDBDF873
:104CB000023004EA4343336050B90DF1020240462A
:104CC0000C2102F085FDBDF8023004EA43443C604B
:104CD000019A2B689A4202D102B0BDE8F081FDF73B
:104CE0008FFA00BF000B00200000FE1F0000000034
:104CF000F0B590F8DA30254C85B0013B226803927C
:104D0000022B07D90025039A23689A4228463AD1F4
:104D100005B0F0BD02AB0F4601AA01210646FFF720
:104D2000B7FF019BB3F57F0F05461FD9002DEAD1D0
:104D30001FBB0422FF21304602F0D2FC2A46074660
:104D40007021304602F0CCFC2A460743FF21304652
:104D500002F0C6FC7FB22A46802147EA00053046B1
:104D600002F0BEFC6DB205436DB2CCE7029BB3F519
:104D70007F0FC8D9002DDBD0C5E73046044901F0CC
:104D80009FFE0546BFE7FDF73BFA00BF000B002082
:104D9000DC0C00200000000000000000000000000B
:104DA000F0B53F4F057C3B6883B00446012280216B
:104DB000019302F095FC0122FF21204602F090FCB5
:104DC00000221146204602F08BFC94F83A219121F2
:104DD000204602F085FC01220021204602F080FCE2
:104DE0000022FF21204602F07BFC20460022802189
:104DF00002F076FC012D37D017D3032D08D06FF0C9
:104E00000706019A3B689A42304647D103B0F0BD8D
:104E100068B304220021204602F062FC0646002806
:104E2000EFD1042384F83231EBE701220021204640
:104E300002F056FC012306468DF803300028E0D12D
:104E400005462DB301350DF103020021204602F085
:104E5000A7FC9DF80330DB0713D590B9B5F5FA6FC1
:104E6000EFD16FF00606CCE730B10222D2E7012184
:104E70002046FFF73DFFCCE729462046FFF738FFE5
:104E8000F3E7B5F5FA6F14BF06466FF00606B8E70C
:104E90009DF80330DA07B4D50225D4E7FDF7B0F961
:104EA000000B0020000000000000000000000000D7
:104EB00030B5114C037C226883B0019283B905465A
:104EC000FFF76EFF30B9284600F072FF10B90323D8
:104ED00085F83231019A23689A420AD103B030BD75
:104EE000019A23689A4204D103B0BDE8304000F033
:104EF0005FBFFDF785F900BF000B00200000000038
:104F0000F0B51A4F83B03B68019306460025012295
:104F10000B21304602F0E4FB002204460B21304610
:104F200002F0DEFB0DF1030204431321304602F0D0
:104F300037FC9DF8033064B2204301355B0740B273
:104F4000EDB20CD0032D07D00028E0D0019A3B68C9
:104F50009A4209D103B0F0BD6FF00B00F6E7032DC4
:104F600008BF6FF00B00F1E7FDF74AF9000B0020D6
:104F700070B5124C82B000222368027405460E46BA
:104F80000193FFF795FF28B1019A23689A4212D145
:104F900002B070BD31462846FFF7C2FD0028F3D1AC
:104FA000019A23689A4206D10146284602B0BDE81C
:104FB0007040FFF7A5BFFDF723F900BF000B0020ED
:104FC000F0B5574D83B02C680194152906463AD0A8
:104FD00014461F46042A00F2A080DFE802F02132C6
:104FE0002E30030004220A21304602F079FBF0B98A
:104FF000002F14BF10230023EF228421304602F03B
:105000009FFBA0B9019A2B6886F8DA409A4240F0DB
:1050100082800146304603B0BDE8F040FFF770BF24
:1050200000220A21304602F05BFB0028E0D0019A02
:105030002B689A426FD103B0F0BD0222D3E703225E
:10504000D1E70122CFE70122FF2102F049FB002234
:1050500011460446304602F043FB00220443FF2180
:10506000304602F03DFB64B2012204438021304609
:1050700002F036FB64B2022204438521304602F07E
:105080002FFB64B204220443FF21304602F028FBC8
:1050900064B200220443CD21304602F021FB64B209
:1050A00011220443CC21304602F01AFB64B20722DD
:1050B0000443FF21304602F013FB64B20022044394
:1050C000BE21304602F00CFB64B206220443FF21ED
:1050D000304602F005FB64B209220443CC2130467D
:1050E00002F0FEFA64B200220443FF21304602F0CF
:1050F000F7FA64B201220443FF21304602F0F0FACD
:1051000064B2002204431146304602F0E9FA64B268
:10511000204340B28BE7FDF773F86FF00A0086E793
:10512000000B002000000000000000000000000054
:10513000F0B5704F97B004463B68159340220021AC
:1051400005A80DF05DFE002320460121ADF80A30D0
:105150008DF807308DF80830039300F091FE94F835
:105160001421012A06D894F8131100F0B9800C29F3
:1051700040F2B98002AA03A9204600F0F9FB0546D7
:10518000002D40F0A38094F85031002B00F0A58052
:105190005949204601F094FC0546002840F09680CD
:1051A0002B46294604222046FFF70AFF0546002821
:1051B00040F08C800122FF21204602F091FA0DF18F
:1051C0000A0206468421204602F002FB2A46FF21FD
:1051D00046EA0005204602F083FA6DB205436DB23F
:1051E000002D73D1BDF80A301B01C4F8D43005A9D5
:1051F0002046FFF71DFB0546002867D10DF1070289
:105200000921204602F0CCFA054600285ED105AE01
:105210000FCE9DF807C004F110050CF0010C84F8C6
:1052200031C10FC50FCE0FC50FCE0FC596E80F00C9
:105230008DF807C085E80F000DF107020121204617
:1052400002F0AEFA0546002840D19DF8073084F8F8
:105250003031024601462046FFF7B2F80546A8BBAA
:10526000024602212046FFF7ABF8054670BB032338
:10527000014684F832310DF10902204601F008FBA5
:10528000054618BB9DF8093084F8E8300DF1090295
:105290000121204601F0FCFA0546B8B99DF8093015
:1052A00084F8E03004AA0321204601F0C9F805463D
:1052B00060B9049BC4F8E43004AA0421204601F03C
:1052C000BFF8054610B9049BC4F8DC30159A3B685A
:1052D0009A4228460CD117B0F0BDD4F84C1158E7CB
:1052E00020293FF647AF204600F042F9054647E740
:1052F000FCF786FF000B0020E80B002000000000F8
:1053000010B5074B82B01C680194019C1B689C423D
:1053100004D102B0BDE8104000F02ABBFCF770FFDA
:10532000000B002000000000000000000000000052
:1053300030B5134C83B00D46236801930DF1020282
:10534000282102F045FA50B9BDF80230C3F30B032F
:10535000B3F5006F09D2FA2202FB03F32B60019A26
:1053600023689A420AD103B030BDA3F58053C3EB42
:10537000431203EB82035B002B60F0E7FCF740FF76
:10538000000B0020000000000000000000000000F2
:10539000F0B5DFF860C083B0DCF800400194D708B6
:1053A0004FF0FF348F421C6017D23C1902F0070205
:1053B00020443E4610F8015FBE4203BF1541EDB2E6
:1053C0001446002415F0010F0ED10134082C4FEAC9
:1053D0005505F7D10136B142ECD1019ADCF8003025
:1053E0009A4205D103B0F0BD04EBC6041C60F4E79B
:1053F000FCF706FF000B002000000000000000008A
:105400002DE9F04F87B0354CDDF84C802468129EB2
:1054100005941F46149B01900296DDE9105B0093F2
:10542000B8F1000F33D08A46914600241AE003EB0E
:105430000B0292092A4951F82220003218BF01229A
:10544000524518D1DA08954207D9B85C03F0070134
:10545000012606FA01F10143B9540134A04503F1D4
:10546000010614D002AB324629464846FFF790FFAA
:10547000029B5A1CDBD1009B6FF031001E60174B62
:10548000059A1B689A4227D107B0BDE8F08F009BB0
:1054900001981E603A460623B02102F0E1F8002888
:1054A000EDD1019803AA0623B02102F0F9F8002DEE
:1054B000E5D09DF80C203B789A420AD13D4403ABDD
:1054C0000137AF42DBD017F8012B13F8011F9142CF
:1054D000F7D06FF03100D2E7FCF792FE000B00200E
:1054E000940E0020000000000000000000000000FA
:1054F000F0B51D4D90F830612B6889B00F46C02281
:1055000001210446079302F0EBF828B1079A2B68B3
:105510009A4226D109B0F0BD69462046FFF728FD22
:105520000028F3D10122FF21204602F0D9F80028FB
:10553000ECD13A46B621204602F04AF90028E5D1DE
:105540000246FF21204602F0CBF80028DED1324689
:105550000121204602F0C4F80028D7D184F8306138
:10556000D4E7FCF74DFE00BF000B00200000000058
:10557000F0B52F4E89B00F461546336807930122C8
:10558000FF21044602F0ACF8A8B30021C4F82411AE
:10559000A4F828116DB327488368012203B306A835
:1055A000B4220623CDE90032CDE90217049004F5B8
:1055B000927304F5957229462046FFF721FF30B912
:1055C000012384F8137184F8145184F81531079A73
:1055D00033689A422AD109B0F0BD2C290A46DED0A0
:1055E00002F1B5039B09511C50F82330002BF4D075
:1055F000D5E72946D3E702464F21204602F070F84E
:105600000028C2D12C224E21204602F069F8024621
:105610000028BAD1FF21204602F062F80028B4D158
:10562000B422B621204602F05BF8AEE7FCF7E8FDB5
:10563000000B0020940E002000000000000000007D
:1056400030B5164C83B041F001022368019300216C
:10565000054602F045F8024630B1019923689942A7
:10566000104619D103B030BD284600F0A1FB024618
:105670000028F2D101462846FFF742FC02460028E6
:10568000EBD101992368994206D12846114603B00F
:10569000BDE8304002F024B8FCF7B2FD000B00205A
:1056A0002DE9F04F87B03F4F109C039400263C68D3
:1056B00002928A460122FF210546019305948DF846
:1056C0001360DDF844809DF848B09DF84C9002F0DE
:1056D00007F8324604463146284602F001F83246C1
:1056E0000443FF21284601F0FBFF64B2044364B287
:1056F000BAF1000F27D0BBF1000F33D1B9F1000F81
:105700003AD10122FF21284601F0EAFF0122044399
:105710000021284601F0E4FF64B200220443FF2187
:10572000284601F0DDFF9DF81330059A23F01003A1
:1057300088F800303B6864B220439A4240B22FD1CF
:1057400007B0BDE8F08FBBF1000F1ED1B9F1000F1B
:10575000D7D0019B8022EE21284601F0F1FF0443BF
:1057600064B2CEE7039ACB21284602F019F804432D
:1057700064B2B9F1000FC4D00DF11302EE21284636
:1057800002F00EF8044364B2BBE7029ACB2128462C
:1057900001F0A6FF044364B2B9F1000FB1D0D8E71D
:1057A000FCF72EFD000B00200000000000000000B0
:1057B0002DE9F0472A4F86B03C6805940024054641
:1057C000884691468DF813401E469BB1012290F801
:1057D00030A11146284601F083FF044698B100230A
:1057E00088F80030059A3B689A42204635D106B0C9
:1057F000BDE8F0870122114628469A4601F070FF65
:1058000004460028EBD140212846FFF719FF044643
:105810000028E4D1B9F1010F0ED088F80000002E65
:10582000E0D052460121284601F05AFF04460028E4
:10583000D8D185F830A1D5E70DF11303CDE9029059
:10584000019302460346CDF8008049462846FFF7FB
:1058500027FF0028E3D00446C4E7FCF7D1FC00BFD3
:10586000000B00200000000000000000000000000D
:105870002DE9F047254F86B03C68059405468846DB
:1058800091461E469BB190F830A102220121284684
:1058900001F026FF044660B1002388F80030059A25
:1058A0003B689A4220462ED106B0BDE8F0879A4662
:1058B000EBE701462846FFF7C3FE04460028EBD17C
:1058C000B9F1010F0ED088F80000002EE7D0524643
:1058D0000121284601F004FF04460028DFD185F8A5
:1058E00030A1DCE70DF11303CDE902090093024674
:1058F0000346CDF8048049462846FFF7D1FE00282C
:10590000E3D00446CBE7FCF77BFC00BF000B002094
:105910002DE9F041144C90F8307182B01E46236896
:1059200001939046002332460546FFF741FF30B110
:10593000019A23689A4214D102B0BDE8F08103466F
:10594000324641462846FFF793FF0028F0D13A46F9
:105950000121284601F0C4FE0028E9D185F8307104
:10596000E6E7FCF74DFC00BF000B00200000000044
:105970002DE9F04FDFF8B0A2B0F83C71DAF8004042
:1059800095B00023CDE90912C0F82431A0F82831E0
:105990000122FF2106461394CDE90F338DF83830EC
:1059A0008DF8393001F09CFE054648B1139ADAF8BB
:1059B00000309A42284640F0318115B0BDE8F08FA2
:1059C00002464F21304601F08BFE05460028EDD1FE
:1059D0002C224E21304601F083FE05460028E5D1F9
:1059E0000246FF21304601F07BFE05460028DDD14E
:1059F000B422B621304601F073FE05460028D5D109
:105A000002468021304601F06BFE05460028CDD1CC
:105A100003460DF139020EA93046FFF779FF05461E
:105A20000028C3D10DF1500B06F595734BF8140DFA
:105A30000320039006F592780620B4240D93029576
:105A400029461A46CDE90004CDF810B04346304649
:105A5000FFF7D6FC05460028A8D10DF13A013046E3
:105A60000F9CFFF745FD054600289FD1BDF83A3051
:105A7000BB4230D904F1B4039B096A4951F8232091
:105A80000023C6F82431A6F82831002A40F0BF8050
:105A90002B2C03D9BBE02C2A144607D004F1B50304
:105AA0009B09621C51F82330002BF4D0B42106234B
:105AB0004FF00309CDE90031CDE90229CDF810B04E
:105AC00043460D9A01213046FFF79AFC002800F06A
:105AD0008D8005466AE700220C9291460792BB42F0
